{
  "fileName": "SimpleStorageV2.sol",
  "contractName": "SimpleStorageV2",
  "source": "//\"SPDX-License-Identifier: UNLICENSED\"\npragma solidity ^0.6.0;\n\nimport \"@openzeppelin/contracts-ethereum-package/contracts/Initializable.sol\";\nimport \"@openzeppelin/contracts-ethereum-package/contracts/math/SafeMath.sol\";\n\ncontract SimpleStorageV2 is Initializable {\n    using SafeMath for uint256;\n    uint256 public storedValue;\n    uint256 public addedValue;\n    uint256 public subtractedValue;\n    event added(uint256);\n\n    function initialize () public initializer {\n        storedValue = 5;\n    }\n\n    function retrieve() public view returns (uint256){\n        return storedValue;\n    }\n\n    function changeValue(string memory _task, uint256 _value) public {\n        if (keccak256(abi.encodePacked(_task)) == keccak256(abi.encodePacked(\"add\"))) {\n            addedValue = _value;\n            storedValue = storedValue + _value;\n        }\n        else if (keccak256(abi.encodePacked(_task)) == keccak256(abi.encodePacked(\"sub\")))  {\n            subtractedValue = _value;\n            storedValue = storedValue.sub(_value);\n        }\n        else {\n            revert(\"Incorrect task\");\n        }\n    }\n}\n",
  "sourcePath": "contracts/SimpleStorageV2.sol",
  "abi": [
    {
      "anonymous": false,
      "inputs": [
        {
          "indexed": false,
          "internalType": "uint256",
          "name": "",
          "type": "uint256"
        }
      ],
      "name": "added",
      "type": "event"
    },
    {
      "inputs": [],
      "name": "addedValue",
      "outputs": [
        {
          "internalType": "uint256",
          "name": "",
          "type": "uint256"
        }
      ],
      "stateMutability": "view",
      "type": "function"
    },
    {
      "inputs": [
        {
          "internalType": "string",
          "name": "_task",
          "type": "string"
        },
        {
          "internalType": "uint256",
          "name": "_value",
          "type": "uint256"
        }
      ],
      "name": "changeValue",
      "outputs": [],
      "stateMutability": "nonpayable",
      "type": "function"
    },
    {
      "inputs": [],
      "name": "initialize",
      "outputs": [],
      "stateMutability": "nonpayable",
      "type": "function"
    },
    {
      "inputs": [],
      "name": "retrieve",
      "outputs": [
        {
          "internalType": "uint256",
          "name": "",
          "type": "uint256"
        }
      ],
      "stateMutability": "view",
      "type": "function"
    },
    {
      "inputs": [],
      "name": "storedValue",
      "outputs": [
        {
          "internalType": "uint256",
          "name": "",
          "type": "uint256"
        }
      ],
      "stateMutability": "view",
      "type": "function"
    },
    {
      "inputs": [],
      "name": "subtractedValue",
      "outputs": [
        {
          "internalType": "uint256",
          "name": "",
          "type": "uint256"
        }
      ],
      "stateMutability": "view",
      "type": "function"
    }
  ],
  "bytecode": "0x608060405234801561001057600080fd5b50610685806100206000396000f3fe608060405234801561001057600080fd5b50600436106100625760003560e01c80632e64cec1146100675780634fd19096146100855780636d619daa146100a35780638129fc1c146100c15780639eb981cf146100cb578063eeb7033114610190575b600080fd5b61006f6101ae565b6040518082815260200191505060405180910390f35b61008d6101b8565b6040518082815260200191505060405180910390f35b6100ab6101be565b6040518082815260200191505060405180910390f35b6100c96101c4565b005b61018e600480360360408110156100e157600080fd5b81019080803590602001906401000000008111156100fe57600080fd5b82018360208201111561011057600080fd5b8035906020019184600183028401116401000000008311171561013257600080fd5b91908080601f016020809104026020016040519081016040528093929190818152602001838380828437600081840152601f19601f820116905080830192505050505050509192919290803590602001909291905050506102cb565b005b6101986104fa565b6040518082815260200191505060405180910390f35b6000603354905090565b60355481565b60335481565b600060019054906101000a900460ff16806101e357506101e2610500565b5b806101fa57506000809054906101000a900460ff16155b61024f576040517f08c379a000000000000000000000000000000000000000000000000000000000815260040180806020018281038252602e815260200180610622602e913960400191505060405180910390fd5b60008060019054906101000a900460ff16159050801561029f576001600060016101000a81548160ff02191690831515021790555060016000806101000a81548160ff0219169083151502179055505b600560338190555080156102c85760008060016101000a81548160ff0219169083151502179055505b50565b60405160200180807f6164640000000000000000000000000000000000000000000000000000000000815250600301905060405160208183030381529060405280519060200120826040516020018082805190602001908083835b602083106103495780518252602082019150602081019050602083039250610326565b6001836020036101000a0380198251168184511680821785525050505050509050019150506040516020818303038152906040528051906020012014156103a1578060348190555080603354016033819055506104f6565b60405160200180807f7375620000000000000000000000000000000000000000000000000000000000815250600301905060405160208183030381529060405280519060200120826040516020018082805190602001908083835b6020831061041f57805182526020820191506020810190506020830392506103fc565b6001836020036101000a038019825116818451168082178552505050505050905001915050604051602081830303815290604052805190602001201415610487578060358190555061047c8160335461051790919063ffffffff16565b6033819055506104f5565b6040517f08c379a000000000000000000000000000000000000000000000000000000000815260040180806020018281038252600e8152602001807f496e636f7272656374207461736b00000000000000000000000000000000000081525060200191505060405180910390fd5b5b5050565b60345481565b6000803090506000813b9050600081149250505090565b600061055983836040518060400160405280601e81526020017f536166654d6174683a207375627472616374696f6e206f766572666c6f770000815250610561565b905092915050565b600083831115829061060e576040517f08c379a00000000000000000000000000000000000000000000000000000000081526004018080602001828103825283818151815260200191508051906020019080838360005b838110156105d35780820151818401526020810190506105b8565b50505050905090810190601f1680156106005780820380516001836020036101000a031916815260200191505b509250505060405180910390fd5b506000838503905080915050939250505056fe436f6e747261637420696e7374616e63652068617320616c7265616479206265656e20696e697469616c697a6564a264697066735822122007f061f3faa2b79f13339ac2acfce3678f0c817b66b67b6da197bb354d5771cd64736f6c634300060b0033",
  "compiler": {
    "name": "solc",
    "version": "0.6.11+commit.5ef660b1.Emscripten.clang",
    "optimizer": {
      "enabled": false,
      "runs": 200
    },
    "evmVersion": "petersburg"
  }
}