{
  "fileName": "SimpleStorage.sol",
  "contractName": "SimpleStorage",
  "source": "//\"SPDX-License-Identifier: UNLICENSED\"\r\npragma solidity ^0.6.0;\r\n\r\nimport \"@openzeppelin/contracts-ethereum-package/contracts/Initializable.sol\";\r\n\r\ncontract SimpleStorage is Initializable {\r\n    uint256 storedValue;\r\n    uint256 addedValue;\r\n\r\n    function initialize () public initializer {\r\n        storedValue = 0;\r\n    }\r\n\r\n    function retrieve() public view returns (uint256){\r\n        return storedValue;\r\n    }\r\n\r\n    function incrementValue(uint256 x) public {\r\n        addedValue = x;\r\n        storedValue += x;\r\n    }\r\n}\r\n\r\n\r\n",
  "sourcePath": "contracts/SimpleStorage.sol",
  "abi": [
    {
      "inputs": [
        {
          "internalType": "uint256",
          "name": "x",
          "type": "uint256"
        }
      ],
      "name": "incrementValue",
      "outputs": [],
      "stateMutability": "nonpayable",
      "type": "function"
    },
    {
      "inputs": [],
      "name": "initialize",
      "outputs": [],
      "stateMutability": "nonpayable",
      "type": "function"
    },
    {
      "inputs": [],
      "name": "retrieve",
      "outputs": [
        {
          "internalType": "uint256",
          "name": "",
          "type": "uint256"
        }
      ],
      "stateMutability": "view",
      "type": "function"
    }
  ],
  "bytecode": "0x608060405234801561001057600080fd5b50610242806100206000396000f3fe608060405234801561001057600080fd5b50600436106100415760003560e01c80632e64cec114610046578063566da06d146100645780638129fc1c14610092575b600080fd5b61004e61009c565b6040518082815260200191505060405180910390f35b6100906004803603602081101561007a57600080fd5b81019080803590602001909291905050506100a6565b005b61009a6100c0565b005b6000603354905090565b806034819055508060336000828254019250508190555050565b600060019054906101000a900460ff16806100df57506100de6101c7565b5b806100f657506000809054906101000a900460ff16155b61014b576040517f08c379a000000000000000000000000000000000000000000000000000000000815260040180806020018281038252602e8152602001806101df602e913960400191505060405180910390fd5b60008060019054906101000a900460ff16159050801561019b576001600060016101000a81548160ff02191690831515021790555060016000806101000a81548160ff0219169083151502179055505b600060338190555080156101c45760008060016101000a81548160ff0219169083151502179055505b50565b6000803090506000813b905060008114925050509056fe436f6e747261637420696e7374616e63652068617320616c7265616479206265656e20696e697469616c697a6564a2646970667358221220bf2497c3e270c7ba8bc0c921af95503f0fd77e14ce7d71f3399af6de3f962c1564736f6c634300060b0033",
  "compiler": {
    "name": "solc",
    "version": "0.6.11+commit.5ef660b1.Emscripten.clang",
    "optimizer": {
      "enabled": false,
      "runs": 200
    },
    "evmVersion": "petersburg"
  }
}