{
  "fileName": "SimpleStorage.sol",
  "contractName": "SimpleStorage",
  "source": "//\"SPDX-License-Identifier: UNLICENSED\"\r\npragma solidity ^0.6.0;\r\n\r\nimport \"@openzeppelin/contracts-ethereum-package/contracts/Initializable.sol\";\r\n\r\ncontract SimpleStorage is Initializable {\r\n    uint256 storedValue;\r\n\r\n    function initialize () public initializer {\r\n        storedValue = 0;\r\n    }\r\n\r\n    function retrieve() public view returns (uint256){\r\n        return storedValue;\r\n    }\r\n\r\n}\r\n\r\n\r\n",
  "sourcePath": "contracts/SimpleStorage.sol",
  "abi": [
    {
      "inputs": [],
      "name": "initialize",
      "outputs": [],
      "stateMutability": "nonpayable",
      "type": "function"
    },
    {
      "inputs": [],
      "name": "retrieve",
      "outputs": [
        {
          "internalType": "uint256",
          "name": "",
          "type": "uint256"
        }
      ],
      "stateMutability": "view",
      "type": "function"
    }
  ],
  "bytecode": "0x608060405234801561001057600080fd5b506101ef806100206000396000f3fe608060405234801561001057600080fd5b50600436106100365760003560e01c80632e64cec11461003b5780638129fc1c14610059575b600080fd5b610043610063565b6040518082815260200191505060405180910390f35b61006161006d565b005b6000603354905090565b600060019054906101000a900460ff168061008c575061008b610174565b5b806100a357506000809054906101000a900460ff16155b6100f8576040517f08c379a000000000000000000000000000000000000000000000000000000000815260040180806020018281038252602e81526020018061018c602e913960400191505060405180910390fd5b60008060019054906101000a900460ff161590508015610148576001600060016101000a81548160ff02191690831515021790555060016000806101000a81548160ff0219169083151502179055505b600060338190555080156101715760008060016101000a81548160ff0219169083151502179055505b50565b6000803090506000813b905060008114925050509056fe436f6e747261637420696e7374616e63652068617320616c7265616479206265656e20696e697469616c697a6564a26469706673582212205c8e2cff30775531514489a111ac2382ed9bf410a7c8a766cf48eed90c3dd0f064736f6c634300060b0033",
  "compiler": {
    "name": "solc",
    "version": "0.6.11+commit.5ef660b1.Emscripten.clang",
    "optimizer": {
      "enabled": false,
      "runs": 200
    },
    "evmVersion": "petersburg"
  }
}