{
  "fileName": "SimpleStorage.sol",
  "contractName": "SimpleStorage",
  "source": "//\"SPDX-License-Identifier: UNLICENSED\"\r\npragma solidity ^0.6.0;\r\n\r\nimport \"@openzeppelin/contracts-ethereum-package/contracts/Initializable.sol\";\r\nimport \"@openzeppelin/contracts-ethereum-package/contracts/math/SafeMath.sol\";\r\n\r\ncontract SimpleStorage is Initializable {\r\n    using SafeMath for uint256;\r\n    uint256 storedValue;\r\n    uint256 addedValue;\r\n\r\n    function initialize () public initializer {\r\n        storedValue = 0;\r\n    }\r\n\r\n    function retrieve() public view returns (uint256){\r\n        return storedValue;\r\n    }\r\n\r\n    function incrementValue(uint256 x) public {\r\n        addedValue = x;\r\n        storedValue.add(x);\r\n    }\r\n}\r\n\r\n\r\n",
  "sourcePath": "contracts/SimpleStorage.sol",
  "abi": [
    {
      "inputs": [
        {
          "internalType": "uint256",
          "name": "x",
          "type": "uint256"
        }
      ],
      "name": "incrementValue",
      "outputs": [],
      "stateMutability": "nonpayable",
      "type": "function"
    },
    {
      "inputs": [],
      "name": "initialize",
      "outputs": [],
      "stateMutability": "nonpayable",
      "type": "function"
    },
    {
      "inputs": [],
      "name": "retrieve",
      "outputs": [
        {
          "internalType": "uint256",
          "name": "",
          "type": "uint256"
        }
      ],
      "stateMutability": "view",
      "type": "function"
    }
  ],
  "bytecode": "0x608060405234801561001057600080fd5b506102d0806100206000396000f3fe608060405234801561001057600080fd5b50600436106100415760003560e01c80632e64cec114610046578063566da06d146100645780638129fc1c14610092575b600080fd5b61004e61009c565b6040518082815260200191505060405180910390f35b6100906004803603602081101561007a57600080fd5b81019080803590602001909291905050506100a6565b005b61009a6100c6565b005b6000603354905090565b806034819055506100c2816033546101cd90919063ffffffff16565b5050565b600060019054906101000a900460ff16806100e557506100e4610255565b5b806100fc57506000809054906101000a900460ff16155b610151576040517f08c379a000000000000000000000000000000000000000000000000000000000815260040180806020018281038252602e81526020018061026d602e913960400191505060405180910390fd5b60008060019054906101000a900460ff1615905080156101a1576001600060016101000a81548160ff02191690831515021790555060016000806101000a81548160ff0219169083151502179055505b600060338190555080156101ca5760008060016101000a81548160ff0219169083151502179055505b50565b60008082840190508381101561024b576040517f08c379a000000000000000000000000000000000000000000000000000000000815260040180806020018281038252601b8152602001807f536166654d6174683a206164646974696f6e206f766572666c6f77000000000081525060200191505060405180910390fd5b8091505092915050565b6000803090506000813b905060008114925050509056fe436f6e747261637420696e7374616e63652068617320616c7265616479206265656e20696e697469616c697a6564a264697066735822122027b8b3514c87dc1c58f844d92c12efa428a32c5e781d8e27c56b4f241181414b64736f6c634300060b0033",
  "compiler": {
    "name": "solc",
    "version": "0.6.11+commit.5ef660b1.Emscripten.clang",
    "optimizer": {
      "enabled": false,
      "runs": 200
    },
    "evmVersion": "petersburg"
  }
}